:02000002D0002C
:1040000000400D00D4940D00000006000C000501D6
:084010000401FD08000000009E
:04401800E88E0D0021
:1040200009480A49884208B505D0094A824202D0A7
:10403000121A04F0B1FE0748074A0021121A04F0D0
:10404000B9FE014808BD00BFD8DF0320E4930D008E
:10405000A0E00320A0E00320EDE7032070B5074EA9
:10406000074C04F0A5F8A41BA4080025A54200D124
:1040700070BD56F8043B98470135F7E7B8930D003B
:10408000DC930D0000F0E6B808B500F09BFDBDE83C
:10409000084004F045B803F08DBA03F08BBA03F082
:1040A00091BA0078B0FA80F040097047012303709C
:1040B00070477047037C13F008031EBFC36A406A51
:1040C0001B1A002BACBF18466FF0004070477047BA
:1040D00010B51021044604F043F9204610BD10B578
:1040E0003421044604F03CF9204610BD103001F0A4
:1040F00065BF103001F080BE07B501220DF1070148
:10410000103001F0CBFD01280CBF9DF807004FF0E7
:10411000FF3003B05DF804FB103001F0D9BF07B5E4
:1041200001228DF8071010300DF1070101F0D0FFCA
:1041300003B05DF804FB0EB403B503AB002153F8E4
:10414000042B019303F073FD02B05DF804EB03B0A0
:104150007047000073B5044608462279A36832B15F
:10416000A3B90B4902B0BDE8704003F04BBC094A4B
:10417000267B094D0949647B012E18BF2946CDE9EC
:1041800000140749FFF7D7FF02B070BD054AEFE7FB
:104190000D8F0D001A910D00098F0D00058F0D0078
:1041A000238F0D00FC8E0D0030B585B01B4B0093A6
:1041B00013798DF804309368029300F58C65938928
:1041C000ADF80C3004460A466B4600F26C412846B6
:1041D00002F0C2FD10B9002005B030BD256004F228
:1041E0003C45284601F020FF0121204602F062FCF8
:1041F000014668B12146284601F037FD0028EAD083
:1042000094F83C3413F0700FE5D0054B1D60E3E7E4
:10421000204602F04FFC0028ECD1DCE7B4910D0001
:10422000A8E5032010B42AB902685DF8044B92682F
:10423000C9B210475DF8044BD2B203F002BC38B5E6
:104240000546FFF7EFFF0446284603F0E2FB204453
:1042500038BD000010B58EB003F0DCFE4FF41651EF
:1042600003F0C6FE03F0D6FE03F0C9FE18B9012024
:1042700003F0C0F9F6E704F04FF8002302463921B5
:10428000594800F035FD40B903F0C4FE574903F02A
:10429000CCFB0A2003F0AEF9FBE73B21524800F0CB
:1042A000FFFD40F25721504800F01FFE4E48032109
:1042B00000F042FE4E4801F0DDFB28B903F0AAFEF3
:1042C0004C4903F0B2FBFEE7494801F0D5FB20B9A9
:1042D00003F0A0FE484903F0A8FB04F01DF85821A4
:1042E0000246464801F087F840B903F093FE44497E
:1042F00003F09BFB0A2003F07DF9FBE703F08AFE45
:10430000404903F092FB404B3C481978032201F0EE
:1043100017F83E4B01933E4B03930024012301AA5F
:1043200005213C48ADF810308DF80840FFF73CFF00
:104330004FF47A730393384B0193384A3849ADF8F8
:10434000144044F2022305A8029401F074FE9DF883
:104350001430002B42D0334901A803F053FB2C2129
:1043600001A803F053FB204800F0D3FD0A220146C8
:1043700001A8FFF764FF2C4901A803F043FB2C219F
:1043800001A803F043FB184800F09DFD0A220146F6
:1043900001A803F056FB01A803F03BFB234901A849
:1043A00003F030FB2C2101A803F030FB0E4800F095
:1043B000D6FD0A22014601A803F043FB01A803F041
:1043C00028FB1B4901A803F030FB1A4901A803F0A0
:1043D0002CFB05A801F028FE0EB010BD03F01AFE5C
:1043E000154903F02CFBF7E740E50320408F0D0053
:1043F000A0E50320568F0D00688F0D0068E50320AF
:104400007C8F0D009C8F0D00ACE00320B4910D005B
:1044100080F0FA02B0E00320C8910D00AA8F0D00D1
:10442000ECE40320B38F0D00BA8F0D00C18F0D0097
:1044300019910D00D58F0D00C7900D0070B594B087
:10444000684601F03AFB02F0B9FE4FF47A75B0FB12
:10445000F5F303FB150503F0DDFD4B4903F0D2FA3C
:1044600003F0D8FD494903F0CDFA03F0D3FD484BE2
:104470001C68002C064680F284802D2103F0C6FAC9
:1044800061420A22304603F0DCFA304603F0C1FAFA
:1044900003F0C0FD03F0BDFA03F0BCFD9DF8001071
:1044A0000A2201F5FA61FFF7BDFE03F0B3FD2F21EB
:1044B00003F0ACFA03F0AEFD0A229DF8011003F000
:1044C000C0FA03F0A7FD2F2103F0A0FA03F0A2FD2C
:1044D0000A229DF8021003F0B4FA03F09BFD2D4967
:1044E00003F090FA03F096FD0446684601F0ACFA3A
:1044F000294B01B201EB410103EB8101204603F09E
:1045000081FA03F087FD254903F07CFA03F082FD70
:104510000A229DF8031003F094FA03F07BFD3A2180
:1045200003F074FA03F076FD0A229DF8041003F0FC
:1045300088FA03F06FFD3A2103F068FA03F06AFD90
:104540000A229DF8051003F07CFA03F063FD2E218A
:1045500003F05CFA03F05EFD29460A2203F071FACB
:1045600002AD03F057FD03F054FA0D48294600F060
:1045700050FEC8B903F04EFD0A4903F056FA14B0D4
:1045800070BD21467DE700BFDB900D0019910D0045
:10459000D8DF0320EA900D00E0DF0320ED900D004E
:1045A00040E50320F0900D009F4E0024231FDBB256
:1045B000012B09D935F81410304600F0E5FC08ABA2
:1045C00003EB840383ED000A01340C2CEED103F0DD
:1045D00021FD964903F016FA03F01CFD9DED080A33
:1045E000022103F015FB03F015FD914903F00AFACF
:1045F00003F010FD8F4903F005FA03F00BFD0A22CA
:10460000BDF80810FFF71BFE03F004FD8A4903F014
:10461000F9F903F0FFFC9DED090A022103F0F8FA15
:1046200003F0F8FC824903F0EDF903F0F3FC814953
:1046300003F0E8F903F0EEFC0A22BDF80A10FFF7D8
:10464000FEFD03F0E7FC7D4903F0DCF903F0E2FC3A
:104650009DED0A0A022103F0DBFA03F0DBFC74494A
:1046600003F0D0F903F0D6FC724903F0CBF903F064
:10467000D1FC0A22BDF80C10FFF7E1FD03F0CAFCE3
:104680006F4903F0BFF903F0C5FC9DED0B0A022151
:1046900003F0BEFA03F0BEFC654903F0B3F903F082
:1046A000B9FC644903F0AEF903F0B4FC0A22BDF88A
:1046B0000E10FFF7C4FD03F0ADFC624903F0A2F950
:1046C00003F0A8FC9DED0E0A022103F0A1FA03F00D
:1046D000A1FC574903F096F903F09CFC554903F0FF
:1046E00091F903F097FC0A22BDF81410FFF7A7FD1B
:1046F00003F090FC544903F085F903F08BFC9DED29
:104700000F0A022103F084FA03F084FC484903F005
:1047100079F903F07FFC474903F074F903F07AFC60
:104720000A22BDF81610FFF78AFD03F073FC474913
:1047300003F068F903F06EFC9DED100A022103F00E
:1047400067FA03F067FC3A4903F05CF903F062FC96
:10475000384903F057F903F05DFC0A22BDF8181040
:10476000FFF76DFD03F056FC394903F04BF903F0F8
:1047700051FC9DED110A022103F04AFA03F04AFCB4
:104780002B4903F03FF903F045FC2A4903F03AF9BD
:1047900003F040FC0A22BDF81A10FFF750FD03F0A9
:1047A00039FC2C4903F02EF903F034FC9DED120A7C
:1047B000022103F02DFA03F02DFC1D4903F022F92C
:1047C00003F028FC1B4903F01DF903F023FC0A2227
:1047D000BDF81C10FFF733FD03F01CFC1E4903F06D
:1047E00011F903F017FC9DED130A022103F010FAF2
:1047F00003F010FC0E4903F005F903F00BFC0D4922
:1048000003F000F903F006FC0A22BDF81E10FFF7C2
:1048100016FD03F0FFFB064903F0F4F803F0FAFB82
:1048200003F0F7F8ABE600BF40E503200C910D0064
:1048300018910D001B910D0028910D0034910D0071
:1048400040910D004C910D0058910D0064910D00A8
:1048500070910D007C910D0088910D00F0B5A3B012
:104860004FF47A731793CA4BCA49CB4A1593002465
:1048700044F2022319A8ADF86440169401F0DBFB62
:1048800001A801F01AF902F099FC03AE0546314681
:10489000C24800F0BEFC30B903F0BCFBC04903F0D5
:1048A000C4F823B0F0BDBD4F231FDBB2012B09D9E3
:1048B00036F81410384600F067FB09AB03EB8403AD
:1048C00083ED000A01340C2CEED19DF86430002BEE
:1048D00000F0588102F072FC4FF47A73B0FBF3F2EF
:1048E00002FB1303B3F5FA7F34BFAE4BAE4B1C682B
:1048F000002C80F245812D2115A803F087F8614234
:104900000A2215A803F09DF82C2115A803F07EF8C3
:104910009DF804100A2201F5FA6115A8FFF782FC40
:104920002F2115A803F072F89DF805100A2215A88A
:1049300003F087F82F2115A803F068F80A229DF8E4
:10494000061015A803F07DF8984915A803F05AF849
:1049500001A801F079F8964B01B201EB410103EB9C
:10496000810115A803F04EF8924915A803F04AF802
:104970002C2115A803F04AF89DF807100A2215A863
:1049800003F05FF83A2115A803F040F89DF80810ED
:104990000A2215A803F055F83A2115A803F036F8B5
:1049A0009DF809100A2215A803F04BF83A2115A822
:1049B00003F02CF84FF47A730A22B5FBF3F115A833
:1049C00003FB115103F03DF82C2115A803F01EF84C
:1049D000794915A803F016F82C2115A803F016F84C
:1049E0009DED090A022115A803F012F92C2115A842
:1049F00003F00CF89DED0A0A022115A803F008F94E
:104A00002C2115A803F002F89DED0B0A022115A830
:104A100003F0FEF82C2115A802F0F8FF9DED0C0A1A
:104A2000022115A803F0F4F82C2115A802F0EEFFDE
:104A30009DED0F0A022115A803F0EAF82C2115A814
:104A400002F0E4FF9DED100A022115A803F0E0F842
:104A50002C2115A802F0DAFF9DED110A022115A8FC
:104A600003F0D6F82C2115A802F0D0FF9DED120A14
:104A7000022115A803F0CCF82C2115A802F0C6FFDE
:104A80009DED130A022115A803F0C2F82C2115A8E8
:104A900002F0BCFF9DED140A022115A803F0B8F83E
:104AA0002C2115A802F0B2FF444915A802F0AAFF74
:104AB0002C2115A802F0AAFFBDF80C100A2215A897
:104AC000FFF7B0FB2C2115A802F0A0FFBDF80E10D7
:104AD0000A2215A8FFF7A6FB2C2115A802F096FFC5
:104AE000BDF810100A2215A8FFF79CFB2C2115A871
:104AF00002F08CFFBDF812100A2215A8FFF792FBF6
:104B00002C2115A802F082FFBDF818100A2215A862
:104B1000FFF788FB2C2115A802F078FFBDF81A10CA
:104B20000A2215A8FFF77EFB2C2115A802F06EFFC4
:104B3000BDF81C100A2215A8FFF774FB2C2115A83C
:104B400002F064FFBDF81E100A2215A8FFF76AFBE9
:104B50002C2115A802F05AFFBDF820100A2215A832
:104B6000FFF760FB2C2115A802F050FFBDF82210C2
:104B70000A2215A8FFF763FB19A801F055FA90E681
:104B80002146BDE603F046FA0D4902F058FF88E6DB
:104B9000C8910D00ECE40320AA8F0D0040E503202E
:104BA000F0900D00D8DF0320DCDF0320EA900D0039
:104BB000E0DF0320ED900D0094910D00A1910D0018
:104BC000C7900D0038B502F0F9FA4FF47A74B0FBD3
:104BD000F4F303FB1404B4F5FA7F34BF0D4B0E4B12
:104BE0000E4D1A7829780E4800F086FBFFF726FC58
:104BF000FFF734FEB4F5FA7F34BF074B054B297835
:104C00001A78074800F078FBFFF718FCBDE8384039
:104C1000FFF724BED8DF0320DCDF0320ACE0032055
:104C200068E5032037B52548254C264D00F058F897
:104C3000254800F024FB254B4FF47A7199602449F4
:104C40001960642184F860142249C4F870140022A9
:104C500001211A825A60E271A4F83C2484F86A2483
:104C600084F87414C4F87824A4F87C242978BFF359
:104C70005B8F11F001010BD128460191FFF711FA6A
:104C8000019928B1144803F00FF82846FFF70EFAEF
:104C9000114BC4F86C340021012002F0FFFB0F4BD4
:104CA00000221A609A809A710220A2F580329A60DE
:104CB00003B0BDE8304002F0E1BB00BF40E5032097
:104CC000B0E00320A0E0032068E503206CE50320AA
:104CD000C8910D00B4910D00A4E0032034E5032039
:104CE000024A026000220271826070471C920D002D
:104CF0002DE9F041044680680F4690461E4610B1EB
:104D0000102103F02DFB1020FFF7C5F9054618B15F
:104D10004246394600F0ABFCA5600121284600F070
:104D2000C2FC30B12368314620461B68BDE8F04123
:104D30001847BDE8F08170B501258AB00026CDE99D
:104D400000650C462B468168802204A800F093FB86
:104D500033462A4604A902A800F05EFC214602A8B8
:104D600000F06CFC0AB070BD70B5012588B000245D
:104D7000CDE900452B4681689222064602A800F044
:104D80007AFB02A800F02CFCC30706D43046294663
:104D9000FFF7D1FF284608B070BD2046FBE710B5ED
:104DA00001238AB00022CDE900230C4680228168CD
:104DB00004A800F060FB01231A4604A902A800F031
:104DC0002BFC214602A800F039FC0AB010BD30B51A
:104DD00001258BB00024CDE900452B468168802257
:104DE00004A800F048FB2A46042304A902A800F006
:104DF00013FC294602A800F021FC054602A800F099
:104E000010FC38B1B4F57A7F0BD0012002F0F2FB30
:104E10000134F3E7B4F57A7F08BF002528460BB0CC
:104E200030BD0025FAE710B501238AB00022CDE994
:104E300000230C46AF22816804A800F01CFB03236A
:104E4000022204A902A800F0E7FB214602A800F014
:104E5000F5FB0AB010BD10B500238AB00124CDE9DE
:104E60000034A3228168234604A800F004FB062333
:104E7000224604A902A800F0CFFB02A800F0D1FB53
:104E8000003818BF01200AB010BD10B504462046F6
:104E9000FFF7E1FF18B9012002F0ACFBF7E710BD06
:104EA00030B5012389B00025CDE900530C4681229D
:104EB000816802A800F0DFFA2A46214602A800F025
:104EC00031FB09B030BD00B5012389B00022CDE926
:104ED00000238122816802A800F0CDFA02A800F028
:104EE0007FFBC0B209B05DF804FB30B5012389B087
:104EF0000025CDE900530C4602238168CA2202A88E
:104F000000F0B9FA2A46214602A800F00BFB09B0CE
:104F100030BD00B5002389B00122CDE90032022363
:104F20008168CA2202A800F0A6FA02A800F058FB85
:104F300080B209B05DF804FB30B5012389B00025CB
:104F4000CDE900530C46AA22816802A800F093FA2A
:104F50002A46214602A800F0E5FA09B030BD00B5A6
:104F6000012389B00022CDE90023AA22816802A88A
:104F700000F081FA02A800F033FBC0B209B05DF87E
:104F800004FB000000000000F8B52DED028B0D467B
:104F90000446FFF7E4FF0A2897BF1F4BDFED1F8A87
:104FA00003EB8000D0ED008A2046FFF78CFF431C06
:104FB000204608EE103AFFF7ACFF044601342846BD
:104FC00003F024FBB8EEC88A07EE904A28EE288A40
:104FD000F8EEE77A064667EE887A0F4617EE900AF3
:104FE00003F026FB0AA3D3E9002303F079FB0C4B63
:104FF000002203F09FFC02460B463046394603F080
:1050000099FC03F065FEBDEC028B00EE100AF8BDC2
:105010003D0AD7A3703D0640E8910D000000000056
:1050200000408F4030B5012389B00025CDE9005301
:1050300014460A46816802A800F01DFA2A46214655
:1050400002A800F06FFA09B030BD10B5302200217F
:105050000446FFF7E7FF012211462046FFF7E2FF73
:10506000204600220221FFF7DDFF20460022032117
:10507000FFF7D8FF204600220421FFF7D3FF204688
:1050800042220521FFF7CEFF204600220621FFF72E
:10509000C9FF204600220721FFF7C4FF2046502207
:1050A0000821FFF7BFFF204600220921FFF7BAFFC2
:1050B000204600220A21FFF7B5FF204600220B21DF
:1050C000FFF7B0FF204620220C21FFF7ABFF204660
:1050D00004220D21FFF7A6FF204600220E21FFF734
:1050E000A1FF204630220F21FFF79CFF204601221E
:1050F0001021FFF797FF204650221121FFF792FF62
:10510000204600221221FFF78DFF20460622BDE82F
:1051100010401321FFF786BF002210B51146044648
:10512000FFF780FF204600220121FFF77BFF20468A
:1051300000220221FFF776FF204640220321FFF7DD
:1051400071FF204602220421FFF76CFF2046002257
:105150000521FFF767FF204610220621FFF762FFB7
:10516000204603220721FFF75DFF20465022082139
:10517000FFF758FF204610220921FFF753FF204672
:1051800003220A21FFF74EFF204600220B21FFF7E2
:1051900049FF204600220C21FFF744FF2046002251
:1051A0000D21FFF73FFF204624220E21FFF73AFF93
:1051B000204600220F21FFF735FF20460022102154
:1051C000FFF730FF204650221121FFF72BFF20462A
:1051D00000221221FFF726FF20460622BDE81040DC
:1051E0001321FFF71FBF38B504460D460021FFF716
:1051F000D6FD02212046FFF716FE204635B1FFF707
:1052000024FF2046BDE83840FFF7E1BDFFF784FFEB
:10521000F7E72DE9F041044688B00E460121FFF77B
:10522000E2FF01212046FFF7BAFD4FF000082046BB
:105230000127FFF72AFE0223A1689522CDE9008706
:1052400002A800F018F90C22314602A800F088F9F3
:10525000414605462046FFF7C6FF39462046FFF780
:105260009EFD2046FFF711FE2DB10C22B11802A8B9
:1052700000F076F90546284608B0BDE8F081002226
:105280000260704710B5012388B00024CDE90043C7
:105290007F22016802A800F0EEF82246214602A80B
:1052A00000F040F908B010BD30B5012389B00025E9
:1052B000CDE900530C4602230168062202A800F043
:1052C000DAF82A46E14302A800F02CF909B030BD13
:1052D00030B5012389B00025CDE900530C460223E7
:1052E0000168042202A800F0C6F82A46E14302A899
:1052F00000F018F909B030BD30B50729144689B05F
:105300004FF0000210D82431CAB201230025CDE9A4
:105310000053016802A800F0AEF82A46214602A810
:1053200000F000F909B030BDA1F10803032B01D84A
:105330001831E9E7A1F10C03032BE6D82031E3E7AC
:105340002DE9F041012492B00026CDE900640F461A
:105350008046016815460223042206A800F08BF857
:105360003B46224606A902A800F056F9D8F80010DC
:1053700002231222CDE900640CA800F07CF83B4621
:1053800022460CA904A800F047F9A5420AD13146EB
:1053900002A800F053F9294604A800F04FF912B012
:1053A000BDE8F0813DB1032DF9D1314602A800F0EE
:1053B00045F93146F0E7214602A800F03FF92146C1
:1053C000EAE730B500238BB00125CDE900350C4666
:1053D0002B460168112204A800F04DF804232A4648
:1053E00004A902A800F018F984EA050102A800F057
:1053F00025F90BB030BDF0B50446006889B00E4603
:10540000174610B1102102F0ABFF1020FEF743FE4B
:10541000054618B13A46314600F029F925600121C8
:10542000284600F040F918B90025284609B0F0BD1B
:105430002046FFF727FF05460028F5D00123002668
:10544000CDE900632168102202A800F014F802A838
:1054500000F0C6F823280CD131462046FFF738FF6C
:1054600031462046FFF7ADFF31462046FFF71CFFCF
:10547000DBE73546D9E730B50025C0E900154281A4
:105480009DF810109DF80C204561417382730373E1
:1054900030BDF0B5034685B04089ADF80C004FEA49
:1054A000102E18689C7A0E46174640B15B7B01931C
:1054B00003AB0093012300F005F905B0F0BD586877
:1054C0000028FAD093F808C05D7BBCF1030F0BD124
:1054D0002EF0010E01358DF80CE08DF80D40009591
:1054E00003AB00F028FAE8E7BCF1000F08D104F0A4
:1054F0007F048DF80C40009503AB3A463146F0E747
:10550000BCF1020F02D164F07F04F2E7BCF1010F9D
:1055100001BF9DF80C3003F07F0343F040038DF88A
:105520000C30E8E7F0B40B4602B9027B042A14D829
:1055300000F10F05436184182946844209D0877B16
:10554000DEB227B92E701B0A0135013CF5E7A673C0
:10555000F9E72046F0BCFFF79CBF0020F0BC704785
:105560007FB50446857A0B4641890068ADF80C107A
:105570000E0A40B10021CDE9002103A9627B00F0B1
:105580000FF904B070BD60680028FAD0217A647BFE
:1055900003290DD146F00106FF21CDE900218DF848
:1055A0000C608DF80D50621C03A900F0F6F9E8E7D5
:1055B00041B965F07F058DF80C50FF21CDE9002140
:1055C0002246F1E7022902D105F07F05F3E7012920
:1055D00002BF9DF80C1061F03F018DF80C10ECE754
:1055E00038B500F10F05027B29460446FFF7B8FFE6
:1055F00078B1227B294622440020A2420BD003022C
:10560000A07B20B9907B1843013A0131F5E7087877
:10561000F9E74FF0FF3038BD10B5016002714371FA
:1056200010BD10B504460068FFF7DAFF22790123A8
:1056300093406279013BD040184010BD70B50446DC
:1056400000680E46FFF7CCFF237901229A40531ED3
:10565000627903FA02F520EA050503EA06012068EB
:1056600091402943027BBDE87040FFF75BBF426079
:105670000022027220220170C260704710B5037AC6
:10568000044653B12178606802F06EF8606802F059
:1056900076F8B0FA80F0400910BD012100F003F85F
:1056A0000028EFD1F8E738B5044640680D4602F00F
:1056B00029F80120207225B12046BDE83840FFF7C7
:1056C000DDBF38BD2DE9F843DDE908961F46C36804
:1056D000154632449A420446884602D90020BDE865
:1056E000F8830178406802F03FF87EB9606803688B
:1056F0002A46DB68414698478542EFD160683946C3
:1057000002F039F8B0FA80F04009E8E7B9F1000F8B
:10571000ECD0606803683246DB6849469847B0427F
:10572000DCD1E3E72DE9F041154604460E46D2B23E
:105730000178406802F003F885420DD100271FFA76
:1057400087F8A84507F1010709D2606803685B691B
:10575000984706F80800F2E70020BDE8F081012034
:10576000FBE72DE9F843074688461646994600258B
:10577000B54212D2FA68741B944228BF1446331BF8
:10578000AB4294BF4B460023224608EB0501384646
:10579000FFF7C8FF10B12544EAE70120BDE8F88310
:1057A00073B51D460023CDE900339DF81C30069EDD
:1057B0000446FFF787FF40B10123324629462046C1
:1057C00002B0BDE87040FFF7CCBF02B070BD000072
:1057D0002DE9F04F0446006885B00D4640B1002326
:1057E000009313460A4602F007FB05B0BDE8F08FB0
:1057F000237BA068484FB7FBF0F7002B0B780CBF5A
:105800004FF0010B4FF0800B1BEA030F01EB02037B
:105810000CBF4FF001094FF00009FFB20393039B47
:10582000AB42E2D095F800A05E464FF0000817B1F9
:10583000384601F0B3FC637B13F0FD0F41D194F9BE
:1058400010305A1C0FD01AEA060114BF012300239E
:105850004B4508D06369606A1A6800292CD002435E
:105860001A604FF00109A169E36A0A6813430B60EB
:1058700017B1384601F092FC94F91130013306D08B
:10588000E3691A68A36A1A4218BF46EA0808A169C0
:10589000E36A0A6822EA03030B6094F911300133CA
:1058A00018BF85F80080237B002B32D17600F6B23A
:1058B000002EBCD10135B2E722EA00021A60894607
:1058C000D1E7A169E36A0A6813430B6017B1384650
:1058D00001F064FC94F91030013308D06369616A07
:1058E0001A681AEA060F14BF0A438A431A60A169AC
:1058F000E36A0A6822EA03030B6094F9113001336A
:10590000CBD0E3691A68A36A1A4218BF46EA0808AE
:10591000C3E77608CCE700BF20A1070007B5012246
:105920008DF807100DF10701FFF752FF9DF80700F2
:1059300003B05DF804FB2DE9F041044600680E4613
:1059400017461D4610B1616802F0E2F994F90E00A5
:10595000002180B202F0ADFC069B05EB0308454533
:1059600008D13744B7420BD016F8011B2046FFF789
:10597000D5FFF7E715F8011B2046FFF7CFFFEEE74D
:1059800094F90E00012180B202F093FC206808B166
:1059900002F0A5F90120BDE8F0812DE9F0410446AF
:1059A00000689DF81C800E4617461D4610B16168C0
:1059B00002F0AEF994F90E00002180B202F079FCF9
:1059C0003744BE420AD1069BEE18AE420CD0414687
:1059D0002046FFF7A3FF05F8010BF6E716F8011BB9
:1059E0002046FFF79BFFECE794F90E00012180B2FF
:1059F00002F05FFC206808B102F071F90120BDE8F7
:105A0000F081000030B50F4C00230133DDB2A94214
:105A100004D914F8015B2A4492B2F6E7022903D9AB
:105A2000830704BF013292B200EBC001C31C00EB3C
:105A3000C10000EB8000013800EB9300104480B2FD
:105A400030BD00BF20920D0008B582784178007803
:105A5000FFF7D8FF07230630B0FBF3F3C3EBC30314
:105A6000C01AC0B208BD08B502F056FC01F04AFEEB
:105A7000012008BDFFF7F7BF08B502F04DFC682113
:105A800001F076FE02F048FC036802219B6898470B
:105A900002F042FC01F073FE02F03EFC012268219C
:105AA00001F05FFE02F038FC03685B69984700F084
:105AB000E000E03818BF012008BD2DE9F843044696
:105AC00002F02AFC682101F053FE02F025FC036875
:105AD00003219B68984702F01FFC01F050FE02F082
:105AE0001BFC0722682101F03CFE02F015FC036854
:105AF0005B69984700F07F09C0F30210A0EB8000BB
:105B000009EB40005FFA80F902F006FC03685B696C
:105B10009847C0F30315A5EB850500EB4500C5B21A
:105B200002F0FAFB03685B699847C0F30316A6EB23
:105B3000860600EB4600C6B202F0EEFB03685B6926
:105B40009847C0F30317A7EB870700EB4700C7B2DE
:105B500002F0E2FB03685B69984702F0DDFB036833
:105B60005B699847C0F30318A8EB880800EB48006E
:105B70005FFA80F802F0D0FB03685B699847C0F3D6
:105B80000313A3EB830300EB4300207084F8018030
:105B9000A770E670257184F805902046BDE8F8836B
:105BA00010B50446243000F077FE28B104F50C70DF
:105BB000BDE8104000F070BE10BD8378016943F06D
:105BC0000403837000F11002806800F01BBF000026
:105BD0002DE9F041017811F02005044603D000269C
:105BE0003046BDE8F0814269174B9A42F7D2FFF781
:105BF000E4FF06460028F2D02169A06800F097FE75
:105C00000746A06805223946243000F06DFE804624
:105C10000028E4D029464FF4007203F0CBF80125A8
:105C2000A3681A79AA4209D918684246E91901F00D
:105C3000C4F90028D3D00135EDB2F1E7636903EB75
:105C400042236361CCE700BF00FE1F0010B504468D
:105C500080680A462430A16900F046FE20B1A3887E
:105C600003F00F0300EB431010BD70B50478054638
:105C70000E464CB92422214603F09CF8AE60F3791D
:105C8000102B03D0202B07D0002004E02023012478
:105C90002B70AC70204670BD4023F8E72DE9F74F1C
:105CA0000378044688461546002B5DD08278D107DC
:105CB0005AD51A072DD5C36942699B1A9D4228BF40
:105CC0001D462E464FF0000904F1100B002E00F087
:105CD0008F8022786369A0689706C3F3080A4FEAA9
:105CE00053211FD5006A0144A068BAF1000F42D1C8
:105CF000B6F5007F3FD3C36A99423CD0B6F5806FBA
:105D000052D20068424601F0CFF868B34FF40077F2
:105D100044E09B06D5D583681A894369C3EB4213D7
:105D20009BB2CBE790F8059009EA0109BAF1000FA0
:105D300008D1B9F1000F05D15BB951064CBF036A18
:105D4000236A23612169A06800F0F1FD09EB0001DD
:105D5000CAE721695A4600F0F0FD002804DBF1D1C2
:105D6000237813F0700F43D1637843F0020363701C
:105D70004FF0FF303DE0CAF50077B7424FF0000228
:105D800000F1240028BF374600F0AEFD0028EBD01C
:105D900000EB0A013A46404602F0FEFF63693B44CD
:105DA000B8446361F61B91E7227892064FEA562ABF
:105DB00006D40279A2EB0902D2B2924528BF9246DC
:105DC00099424FEA4A2708D2A068534600684246E3
:105DD00001F0B2F80028E1D1C6E753448B42F3D971
:105DE0002430019100F058FD01990028ECD1BBE767
:105DF000A81B03B0BDE8F08F73B501220DF10701B8
:105E0000D0E904560446FFF749FF01280ABF9DF870
:105E100007004FF0FF30C4E9045602B070BD37B53B
:105E2000436913F4F07F0446C3F3431500D099B9D6
:105E300001220DF107012046FFF730FF40B2012893
:105E400002D0002003B030BD63691F33A0686361D6
:105E5000303000EB4510F5E72033F7E72DE9F0414E
:105E60000278076904460D4662B14069884202D053
:105E700019B921616561012006E0160706D5E369BD
:105E80008B420BD227610020BDE8F081910605D539
:105E9000A3681B89B5EB431FECD9F3E7D4F808C01E
:105EA0009CF80660431E06F109016E1ECB40CE40F1
:105EB000B34200D898B953064CBFDCF82030236AAF
:105EC000236104F11008002ED4D02169A068424655
:105ED00000F033FD002806F1FF36F4DCD2E7F61AB5
:105EE000EFE7F8B50F4616460021242204461D466A
:105EF00002F060FFB868A060A68000F1300206F0F2
:105F00000F063B6AE360710102EB4616F37A1F0746
:105F100046D4431893F83B3003F017032370F27A0A
:105F200012F0180F04BF43F0080323709DF81830D7
:105F3000E37005F00303012B2CD0022B28D07BBB90
:105F40006A052DD40123A370A278930704D5237882
:105F5000DF0625D4DE0723D4AB1123F07F0305F041
:105F6000080633431343A370C36AA3614318B3F80D
:105F70004420B3F84A1041EA02416A0513D559B9E1
:105F8000A37843F00403A3706B0410D40120F8BD80
:105F90000323D8E70223D6E700F06FFD0028EFD1F6
:105FA00000202070F3E72162DB6CE361ECE7E1693C
:105FB0002046FFF753FF0028E8D1F1E738B5037812
:105FC00004460BB9012038BD83785A0723D5012137
:105FD000FFF73CFE054628B9637843F00103637080
:105FE0000020F0E70378E52BF6D023781B0744BFA9
:105FF000E369C361238C4383638C8382094B1B68F1
:106000002BB100F11601183098472B8B6B82A378C7
:1060100023F00403A370A068FFF7C2FD0028DBD0C3
:10602000D0E700BFA4E5032010B50446FFF7C6FF84
:106030000023237010BDF0B593B01F460023ADF8C8
:1060400024300378019206460C4613B1002013B0A9
:10605000F0BD0B7813F0700FF8D013782F2B12D1FE
:10606000019A13782F2B02D101320192F8E7A1682F
:106070001BB93046FFF7F9FDE9E709A8FFF7F5FD81
:106080000028E3D009AC019801AA03A900F0F6F8B2
:106090000028DBD0019B1B789BB1002303AA21467B
:1060A000304600F01FFA0028D0D035460FCD09AC9D
:1060B0000FC40FCD0FC42B6823603046FFF7B4FF29
:1060C000E0E73B4603AA2146304600F00BFABEE764
:1060D0002DE9F047037889461907044617465BD532
:1060E00083789A0758D51B0751D46369DB43BB42B9
:1060F00052D3B84604F1100A6669B8F1000F00F0F7
:106100009180A0684379C6F3080513EA56260ED19C
:106110006DB92169002946D0524600F00EFC0028D6
:106120003ADB04D12046FFF748FD002834D021692E
:10613000A06800F0FCFB3118A06815B9B8F5007F25
:106140003FD2C5F50076464528BF4646002D36D1DC
:106150006269E3699A4234BF01220522243000F0CB
:10616000C3FBC8B1284432464946354402F014FE08
:10617000B5F5007F04D1A068243000F08DFB58B144
:10618000636933446361B144A8EB0608B4E7C169AD
:10619000FFF764FE0028A8D1637843F00103637021
:1061A0004FF0FF3050E0236A3BB92046FFF705FD72
:1061B0000028F1D023692362B9E72361B7E7012200
:1061C000CCE7B8F5806FC26A1BD390F804C0ACEB83
:1061D0000606F3B24FEA582E734528BF7346914224
:1061E0004FEA432607D31A448A4282BF4FF0FF3258
:1061F00080F82450C262A5684A46286800F053FF20
:10620000BDE7914202BF4FF0FF3380F82450C362D4
:10621000A3684A46186800F0D0FE0028BCD04FF4AE
:106220000076ADE7E269A378B24204D2E66143F0BA
:106230000403A37003E0084A1268002AF7D194F916
:106240000230002B02DB3846BDE8F0872046FFF71E
:10625000B5FE0028F7D19FE7A4E50320411E00F119
:106260000A030020420842EAC01011F8012F52FA36
:1062700080F08B42C0B2F5D1704700002DE9F047A5
:10628000064610F8013B202BFAD06B4D8E6000249F
:10629000335DC3B12F2B16D05C2B02D10020BDE89B
:1062A000F087A3F12200C0B21D2803D825FA00F020
:1062B000C007F3D403F0BF003C28EFD0203B5E2B97
:1062C000ECD80134E4E733191846074610F8015BAF
:1062D000202DFAD02F2DF8D017604CB113F8012DD6
:1062E0002E2A01D0202A01D1013CF6E7FF2CD5DC73
:1062F0004C6001F10D0301F11802202003F8010B9D
:106300009342FBD14FF0000816F808302E2B01D035
:10631000202B02D108F10108F6E7B8FA88F040090D
:10632000651E6B1C02D0735D2E2B14D14FF000093B
:1063300007274A46CA464FF0080EA04569DA16F804
:106340000830202B03D02E2B07D1A84512D00020D7
:1063500008F10108F1E7013DE3E7222B08D07C2B8F
:1063600006D0A3F12A0CBCF1050F0BD82D2B13D0AE
:10637000A8455CD10A2F4BD0A8460A2708224FF027
:10638000100EE5E7A3F13A0CBCF1050FF0D9A3F12B
:106390005B0CBCF1020FEBD9A3F1210CBCF15D0F3A
:1063A000E6D8A845E6D0BA4230D8A3F1610CBCF1DA
:1063B000190F1AD8203B4EEA0909DBB25FFA89F9B6
:1063C00002F1010C5FFA8CFC0A44BCF1060F537316
:1063D00001D881F80CC06246BAE7A84518DCA84687
:1063E0000A2708224FF0100EB1E7A3F1410CBCF1CF
:1063F000190F98BF4EEA0A0AE2E70B7B01200870EA
:1064000019447E234B7331238B7348E70A2FE4D161
:1064100000204B7B202B3FF441AF0028EDD01AEA3F
:10642000090F18BF4FF0020981F8009037E7BA4210
:10643000ECD85F230020C3E7010100312DE9F843C8
:1064400091F80C9006460C4602257E2701F10D08B6
:106450006168A2686B189BB21144914206D012F891
:10646000010B03EB431343409BB2F6E7B9F1030F73
:1064700028BF4FF0030909F10402D2B203F00F0163
:10648000A018013A0929D2B294BF30313731914571
:1064900041734FEA1313F1D104EB090300215F7339
:1064A0003046FFF7DBFC01213046FFF7B8FC014620
:1064B00028B97078B0FA80F04009BDE8F883037815
:1064C0006BB1C37A1B07EED40B22404602F056FC98
:1064D0000028E8D10135ADB2642DB9D1EDE7012036
:1064E000EBE700002DE9F04F2DED028B89B00D4652
:1064F00005930B78069013F0700F904605D100209D
:1065000009B0BDEC028BBDE8F08F069B1B78002B19
:10651000F5D153680493137899071CBF049B03F1CA
:106520000C074FF0000118BF0D2328461DBFB7FB15
:10653000F3F70137FFB20127FFF790FC08F10D02D6
:10654000002308EE102A9B461C461E4603939A46DB
:106550006A69079301212846C2F34F19FFF75FFCD0
:10656000079B00286ED16B78002BC8D1059B9A053C
:10657000C5D503F00303013B012BC0D8039B002CBE
:1065800008BF4B460393BC42C0F00381BAF1000F31
:1065900040F01B81039B28465901FFF75FFC002850
:1065A000ADD0013F5FFA87FA56464FF000090F273A
:1065B000002E00F0218100212846FFF730FC044620
:1065C00000289CD0AA6892F82430564543F0010375
:1065D0000CBF46F0400BB34682F8243080F800B080
:1065E000C77280F80C9008F10D00FFF737FE0BF032
:1065F0001F0B607384F81A9084F81B900BF1FF3B1B
:106600000D22D8F808C002FB0BF200230499914236
:1066100040F2E3801CF80210042B5FFA83FE03F1C2
:10662000010000F2E08004EB4303A3F801100D2801
:1066300002F101020346E9D1013EF6B2B8E74FF09C
:10664000010A85E70278E52A00D07AB90399002C7F
:1066500008BF4946BC4238BF0134039138BFE4B299
:10666000002A83D0E52A04D1002671E7BC4238BF56
:1066700000242E2AF8D0C17A0F295DD13EBB12F03A
:1066800040063FF465AF02F01F06437BB3460BF1B3
:10669000FF324FF00D0E0EFB02FE049A7245E3D955
:1066A000A2EB0E0207924FF0000CBCF1040F0CEBB2
:1066B0000E095FFA8CF214D800EB4C02B2F80120FC
:1066C00007998C451BD1002A18BF002640E70BF123
:1066D000FF3B5FFA8BFB5A45C6D1427B9A42D6D02C
:1066E000C2E70A2A95BF0CF1FF320CF1010200EB60
:1066F000420200EB420294BFD2889288E0E7FF2A70
:10670000B2D8D2B2A2F141011929D8F8081011F873
:10671000091098BF2032A1F1410998BFD2B2B9F156
:10672000190F9CBF2031C9B291429DD10CF1010CCF
:10673000BCF10D0FB9D10BE70A0795D466B1BBF1D7
:10674000010F03937FF4DBAEFFF788FD039B9842B4
:106750007FF4D5AEB2460FE018EE101A0B22079365
:1067600002F00CFB079B00287FF4F2AE98F800A023
:106770001AF0010A7FF463AF059B19053FF5BFAE20
:10678000059B0698CDF800A04A462946FFF7A9FBCD
:10679000B6E600212846FFF742FB98B96B78002B3C
:1067A0007FF4ADAE2846FFF713FA00283FF4A7AEFA
:1067B000AB681B79012B3FF6E9AE1034E4B2A74277
:1067C000F0D8E3E60134E4B2DDE641462846FFF7BF
:1067D00035FE00287FF4DEAE91E614BF4FF0FF31A6
:1067E000002189B218E7BEF10A0F94BF04EB4303FE
:1067F00004EB400399801AE7314628466F69FFF79A
:106800000EFB044600283FF47AAE2022314602F007
:10681000D1FA434653F80D2F22605A6862601A89F4
:1068200022819B7AA37298F8003003F01803237337
:106830000F4B1B689BB104F10E0104F11000984747
:10684000238A63822383E389E382AA6892F824304F
:1068500043F00103C7F34F1982F8243090E7212356
:106860002374282363740823A673E373E8E700BF47
:10687000A4E5032013B50446084659B1019102F07E
:10688000C5FA23680199DB680246204602B0BDE8DC
:106890001040184702B010BD37B50378DA07044638
:1068A00020D54368816800F10C021868019200F05D
:1068B00084FB019A054618B90025284603B030BD6F
:1068C00023789B0704D4237823F001032370F4E793
:1068D000D4E9013019690144186800F06EFB002802
:1068E000F1D1E9E70125E8E770B583688B420446FA
:1068F0000E46154609D0FFF7CFFF08B9002070BD3E
:106900006B070AD500232370A660227805F00305E3
:106910002046154300F80C5BF1E7636804F10C02B4
:106920001868314600F0C0FA0028EBD1E6E7837919
:1069300040690239994008447047012970B50546FD
:106940000C46164602D84FF0FF3070BDC3698B422B
:10695000F9D3C379202B16D18169022201EBD4111E
:1069600000F50C70FFF7C0FF0028ECD004F07F04A6
:1069700050F8243023F07043EA699A4226BF33600E
:1069800001200020E1E7102BDDD18369C1F307214D
:106990000222194400F50C70FFF7A6FF0028D2D0A0
:1069A000E4B230F81430E7E7012938B50C46154653
:1069B00001D8002038BDC3698B42FAD3C379202B9C
:1069C0000FD18169032201EBD41100F50C70FFF7A0
:1069D0008BFF0028EDD004F07F0440F82450012004
:1069E000E8E7102BE5D18369C1F30721032219449D
:1069F00000F50C70FFF778FF0028DAD0E4B220F839
:106A00001450ECE72DE9F341C4688C4205460E466C
:106A1000904601D3012701E00C460027EB690134C1
:106A2000A34202D2C7B9EC68F4E7A64214D001AA87
:106A300021462846FFF781FF00280DDBEED0019BA1
:106A4000002BEBD107B1EC606FF070422146284675
:106A5000FFF7AAFF074620B90027384602B0BDE875
:106A6000F08116B9C8F80040F7E7224631462846BB
:106A7000FFF79AFF0028F5D1EEE773B505460C46FF
:106A800001AA21462846FFF758FF061E10DB002208
:106A900021462846FFF788FF50B1EB68A34224BF88
:106AA00004F1FF34EC60019C002EE9D102B070BD0E
:106AB0000020FBE7012370B50022C3604FF0FF33D5
:106AC0000446C27100F12406806280F82420C3626B
:106AD000C0F8340280F83022C0F838320D46B9B11F
:106AE000042901D9002070BD11463046FFF7FCFE95
:106AF0000028F7D000EB051393F8AE315B06F1D117
:106B000005F11B0100EB0111D1F80650002DE9D071
:106B1000002229463046FFF7E7FE0028E2D0B0F811
:106B20000B30B3F5007FDDD1037C022BDAD1C389B2
:106B3000002BD7D0417B21714B1E63710023A371C1
:106B400009260123994207D0013ECBD0A2795B00F0
:106B50000132DBB2A271F5E7C18A01B9416A216154
:106B6000C3892B44A361B0F81120228103EB4103B8
:106B70002362B0F81110490101F2FF1103EB512318
:106B80006361B0F8132002B9026AE91AA3791144CB
:106B9000D9404B1CE36140F6F473994202D80C23B0
:106BA000E3719FE74FF6F473994285BFC36A23628E
:106BB00010232023E371012095E7000070B50E4EED
:106BC0000D46144600F0F2FA3368C01A0B4B984297
:106BD00008D900F0F3FA0A4B186000F07BFC00F0D3
:106BE000E5FA306000F0EAFA80B2401BA042D4BF60
:106BF0000020012070BD00BFACE50320A08601008D
:106C000038E7032038B5057A04464DB9406800F0EE
:106C10006BFA63682946187D01F04BFB0123237250
:106C200038BD10B5037A04466BB143680121187D65
:106C300001F03FFB6068FF2100F088FA606800F017
:106C400067FA0023237210BDF8B504460D461646B8
:106C500000F0B4FA87B2606800F05DFAFF28607255
:106C60000ED14FF47A7239462046FFF7A7FF00286D
:106C7000F1D0552320462370FFF7D3FF0020F8BD45
:106C8000FE2801D05023F5E760683246294600F01F
:106C900047FA607208B16023ECE7606800F03BFAE5
:106CA000606800F038FA0120E9E770B504460E4646
:106CB00000F084FA85B2324629462046FFF77EFF6F
:106CC00030B9606800F027FAFF28F4D1012070BDC8
:106CD0000020FCE7F7B5037A019204460D460BB994
:106CE000FFF790FF25B14FF496712046FFF7DDFFC7
:106CF000606845F0400100F029FA032601AFB95D54
:106D0000606800F023FA013EF9D2002D60680CBFE4
:106D10009521872100F01AFA606800F0FCF90B2534
:106D2000606800F0F8F90306607203D5013D15F0C4
:106D3000FF05F5D103B0F0BD70B504460D4616460B
:106D400037210022FFF7C6FF324629462046BDE81C
:106D50007040FFF7BFBF00002DE9F041002505722C
:106D6000057085724160044690461E4600F026FA82
:106D700041460746606800F0BBF96368494A1D72E6
:106D80000125DA601D822046FFF73CFF6368294633
:106D9000187D01F08EFA0A256068FF21013D00F0A0
:106DA000D5F915F0FF05F7D163682946187D01F084
:106DB00080FA0A25002211462046FFF78BFF0128A2
:106DC000804618D0013D15F0FF0507D1202320464D
:106DD0002370FFF726FF0020BDE8F0816068FD21E9
:106DE00000F0B4F94FF40278606800F094F9B8F15B
:106DF0000108F9D1DEE74FF4D57208212046FFF7EC
:106E000069FF052814D184F80A800025BFB22A46FC
:106E100029212046FFF790FF0246D8B14FF4FA62CD
:106E200039462046FFF7CAFE0028F0D04323CEE7BC
:106E30000425606800F06FF9013D15F0FF056072F0
:106E4000F7D1AA2804D10223A3724FF08045DDE7D1
:106E50002523BCE7A37A022B18D13A212046FFF75D
:106E600039FF08B13723B2E7606800F054F900F049
:106E7000C000C02804BF0323A372606800F04BF970
:106E8000606800F048F9606800F045F92046FFF7B7
:106E9000C8FE63683079B168B2891A821872D96005
:106EA000012099E790D0030038B5837A032B18BFEF
:106EB000490215460A4611210446FFF70BFF30B17F
:106EC000302323702046FFF7ACFE00250BE0294657
:106ED0004FF400722046FFF7B7FE05460028F1D0B8
:106EE0002046FFF79EFE284638BD10B5837A032B57
:106EF0000A4618BF4A0212210446FFF7EBFE30B1E2
:106F0000312320462370FFF78CFE002010BD0120A6
:106F1000FCE710B500220C210446FFF7DBFE30B180
:106F2000282320462370FFF77CFE002010BD20465A
:106F3000FFF777FE0120F9E7F8B5044616461F462D
:106F4000FFF7D3FF68B10025ABB29F4206EB4521A6
:106F500009D94FF400722046FFF776FE013500286C
:106F6000F2D10020F8BD2046BDE8F840FFF7D1BFC0
:106F700038B504461546406800F0E8F84FF4007252
:106F80006068294600F0E6F86068FF2100F0DEF84E
:106F90006068FF2100F0DAF8606800F0BCF8607209
:106FA00000F01F00052806D0572320462370FFF766
:106FB00038FE002038BD0120FCE770B5837A032B32
:106FC00018BF490215460A4618210446FFF782FEFB
:106FD000064630B1322323702046FFF722FE0025FB
:106FE0001FE02A46FE212046FFF7C2FF0028F3D00B
:106FF0004FF4FA612046FFF758FE054608B95A23B8
:10700000E9E732460D212046FFF764FE08B1292347
:10701000E1E7606800F07FF80028F8D12046FFF72C
:1070200000FE284670BD13B501914FF4FA61044685
:10703000FFF73BFE019A30B95B2323702046FFF730
:10704000F0FD002005E0FC212046FFF791FF00281D
:10705000F4D002B010BD10B5837A032B0A4618BFD6
:107060004A0219210446FFF735FE30B1332320468A
:107070002370FFF7D6FD002010BD0120FCE738B5D6
:107080004FF4FA610446FFF710FE054630B9562367
:1070900023702046FFF7C5FD284638BD6068FD21F6
:1070A00000F054F8F5E7F8B5044616461F46FFF71A
:1070B000D2FF70B10025BD4206EB4521204604D029
:1070C000FFF7B1FF28B10135F5E7BDE8F840FFF75C
:1070D000D6BF2046FFF7A5FD0020F8BD014B0122D9
:1070E0001A707047B0E50320011D006800F010BE63
:1070F00010B504460175006800F0E0FD207D012117
:1071000001F0C6F8207D0121BDE8104001F0D1B8A2
:10711000006800F0E4BD0068FF2100F067BE0000D9
:1071200037B51346074A00920025074C00682570C2
:107130000A46294600F060FE2378002BFCD0002090
:1071400003B030BDDD700D00B0E50320006800F035
:107150004DBE000037B51346064A00920025064C86
:10716000006825702A4600F047FE2378002BFCD0EB
:1071700003B030BDDD700D00B0E5032008B5024B53
:107180001B685B6C019308BD4802030008B5024B05
:107190001B685B68019308BD1802030008B5024B29
:1071A0001B68DB68019308BD1802030008B5024B99
:1071B0001B681B69019308BD1802030008B5024B48
:1071C0001B685B69019308BD1802030008B5024BF8
:1071D0001B689B68019308BD2C02030008B5024B95
:1071E0001B68DB68019308BD2C02030008B5024B45
:1071F0001B681B69019308BD2C02030008B5024BF4
:107200001B68DB68019308BD2802030008B5024B28
:107210001B689B69019308BD2802030008B5024B57
:107220001B68DB69019308BD2802030008B5024B07
:107230001B681B6A019308BD2802030008B5024BB6
:107240001B685B6A019308BD2802030008B5024B66
:107250001B689B6A019308BD2802030008B5024B16
:107260001B68DB6A019308BD2802030008B5024BC6
:107270001B681B6B019308BD2802030008B5024B75
:107280001B685B6B019308BD2802030008B5024B25
:107290001B681B6C019308BD2802030008B5024B54
:1072A0001B681B6D019308BD2802030008B5024B43
:1072B0001B685B69019308BD6402030008B5024BBB
:1072C0001B689B68019308BD6802030008B5024B68
:1072D0001B68DB68019308BD6802030008B5024B18
:1072E0001B681B68019308BD3002030008B5024B00
:1072F0001B685B69019308BD3002030008B5024BAF
:107300001B68DB69019308BD3002030008B5024B1E
:107310001B681B6A019308BD3002030008B5024BCD
:107320001B685B6A019308BD3002030008B5024B7D
:107330001B689B6A019308BD3002030008B5024B2D
:107340001B689B6B019308BD3002030008B5024B1C
:107350001B68DB6B019308BD3002030008B5024BCC
:107360001B681B6C019308BD3002030008B5024B7B
:107370001B685B6C019308BD3002030008B5024B2B
:107380001B681B68019308BD3C02030008B5024B53
:107390001B68DB68019308BD3C02030008B5024B83
:1073A0001B681B69019308BD3C02030008B5024B32
:1073B0001B685B69019308BD3C02030008B5024BE2
:1073C0001B689B69019308BD3C02030008B5024B92
:1073D0001B68DB69019308BD3C02030008B5024B42
:1073E0001B681B6A019308BD3C02030008B5024BF1
:1073F0001B689B6A019308BD3C02030008B5024B61
:107400001B681B68019308BD4C02030008B5024BC2
:107410001B685B68019308BD4C02030008B5024B72
:107420001B681B69019308BD4C02030008B5024BA1
:107430001B685B69019308BD4C02030008B5024B51
:107440001B689B69019308BD4C02030008B5024B01
:107450001B68DB69019308BD4C02030008B5024BB1
:107460001B681B6A019308BD4C02030008B5024B60
:107470001B685B6A019308BD4C02030008B5024B10
:107480001B685B68019308BD2002030008B5024B2E
:107490001B685B69019308BD2002030008B5024B1D
:1074A0001B68DB6A019308BD2002030008B5034B8B
:1074B0001B68D3F88830019308BD00002002030048
:1074C00008B5034B1B68D3F89430019308BD000046
:1074D0002002030008B5024B1B689B68019308BD9E
:1074E0004402030008B5024B1B68DB6B019308BD27
:1074F0004402030008B5024B1B685B68019308BD9A
:107500004002030008B5024B1B689B68019308BD4D
:107510004002030008B5024B1B68DB68019308BDFD
:107520004002030008B5024B1B681B69019308BDAC
:107530004002030008B5024B1B685B69019308BD5C
:107540004002030008B5024B1B689B69019308BD0C
:107550004002030008B5024B1B68DB69019308BDBC
:107560004002030008B5024B1B681B6A019308BD6B
:107570004002030008B5024B1B681B6B019308BD5A
:107580004002030008B5024B1B685B6B019308BD0A
:107590004002030008B5024B1B681B6C019308BD39
:1075A0004002030008B5024B1B685B6C019308BDE9
:1075B0004002030008B5024B1B681B68019308BD1D
:1075C0001C02030008B5024B1B685B68019308BDF1
:1075D0001C02030008B5024B1B685B6A019308BDDF
:1075E0001C02030008B5024B1B685B6C019308BDCD
:1075F0001C0203000021FFF749BF000002480023DE
:107600000360FFF7BBBD00BFB4E503200022406864
:107610001146FFF7A7BF002240681146FFF7B2BF2F
:1076200040680022FFF7A6BF4068002281F00101F8
:10763000FFF790BF002340681A461946FFF782BF44
:10764000002340681A461946FFF774BF00224068BD
:107650001146FFF767BF002240681146FFF752BF8F
:10766000406800220221FFF755BF002340681A46F8
:10767000FFF740BF024B03225A60024A1A6070476C
:10768000B8E5032034920D007047F8B5064615465C
:107690000C468F18BC4206D0336814F8011B9B6857
:1076A00030469847F6E72846F8BD007C0022FFF7F1
:1076B000BDBD007C0021FFF7C1BD007C0021FFF7AC
:1076C000C5BD007C0021FFF7C9BD007C0021FFF78C
:1076D000CDBD10B51421044600F042FE204610BD79
:1076E00010B54FF47A73044608460021C4E901132B
:1076F000034B236020741146FFF7C8FD204610BDE0
:1077000070920D000023007C1A461946FFF776BDE3
:107710007FB500221423CDE90122ADF804300B78A7
:107720008DF808304B680393CB680493007C0B7A88
:10773000059301A9FFF7B2FD07B05DF804FB1FB583
:10774000003B8DF800104FF06401039118BF012336
:10775000694601928DF80830FFF7DAFF05B05DF851
:1077600004FB0123FFF7EBBF007C0022FFF74EBDB7
:10777000C9B2FFF7F9BF007C0022FFF74FBD01211E
:10778000FFF7F9BF704710B51821044600F0E8FD77
:10779000204610BDF0B5037D062B8DB00E4600F1DE
:1077A00004074FF0000412D000F1080515F8011D80
:1077B0000A22304600F045F9AF42044419D0002CAB
:1077C000F4D02E21304600F021F90444EEE72F23B7
:1077D0006A4639460A208DF80040FFF767FD684683
:1077E00001F014FB33680246DB686946304698476F
:1077F000044620460DB0F0BD10B5054B04461122DD
:1078000040F8043B002101F0D5FA204610BD00BF2E
:1078100098920D000346074A10B543F8042B01F176
:10782000100251F8044B43F8044B9142F9D10A7805
:107830001A7010BD98920D0010B59DF8084044EAEA
:10784000032343EA024242EA0161042341600375D3
:1078500010BD13B5CB7800938B784A780978FFF781
:10786000EBFF02B010BD0000014B024A1A607047E6
:10787000C0E50320A4920D00002340681A46FFF7DC
:1078800039BE406800220221FFF744BE0022406852
:107890001146FFF737BE002240681146FFF742BE8F
:1078A000002340681A461946FFF744BE002340688B
:1078B0001A461946FFF746BE40680021FFF76ABE28
:1078C00040680021FFF76EBE4068002281F0010190
:1078D000FFF740BE40680022FFF74CBE0022406820
:1078E0001146FFF74FBE002240681146FFF73ABE2F
:1078F0002DE9F043002495B016460D460746FFF7E4
:107900007BFF214618220EA8009401F053FA402371
:10791000CDE90C3421466B460CAA3046FFF7D6FC65
:107920000446002846D1024601216868FFF7FAFDA7
:107930000221804622466868FFF7F4FD009E8146DA
:107940002146002E36D0002934D17368022B03D093
:107950000A2B0BD0F669F4E7B8F1000F04D0716977
:1079600038460431FFF775FF4146F3E7B9F1000FE0
:1079700001D14946EEE77469102201A801F01AFA14
:1079800006238DF8143001AD04F10803183418688B
:1079900059682A4603C20833A3421546F7D101A904
:1079A00006A807ADFFF736FF0FCD3C1D0FC42B68AF
:1079B0002370DEE70098FFF781FC384615B0BDE87C
:1079C000F0830000024B034A1A6000225A6070479D
:1079D000C4E50320B0920D00F8B506460D468F1899
:1079E0000024BD420CD0336815F8011B9B6830465B
:1079F0009847031E01DB1C44F3E7002C08BF1C461C
:107A00002046F8BD08B5FEF735FF08BD03689B6842
:107A1000184738B50D210546FFF7F8FF0A2104463F
:107A20002846FFF7F3FF204438BD38B50546FEF77A
:107A300021FF04462846FFF7ECFF204438BDFFF73E
:107A4000F4BF30B58BB000238DF82430012A98BFE5
:107A50000A2209AC0D46B1FBF2F101FB125303F00F
:107A6000FF03092B94BF30333733DBB2AA4204F84B
:107A7000013DEFD92146FEF7FDFE0BB030BD000001
:107A80002DE9F74F55EC104B06460F4610EE102A25
:107A900010EE100A2B46294601F0BCF840B15349BC
:107AA0003046FEF7E7FE8246504603B0BDE8F08F51
:107AB00025F000494E4B4FF0FF322046494601F079
:107AC000A9F848B94A4B4FF0FF322046494601F029
:107AD00083F808B94749E3E7474B4FF06042204637
:107AE000294601F08DF808B14449D9E7444B4FF0DD
:107AF00060422046294601F065F80028F4D10022B2
:107B000000232046294601F05DF8D0B12D213046F2
:107B1000FFF77CFF05F1004382461D463949DFF837
:107B2000EC904FF0000B00204FF000085FFA8BF351
:107B30009F4208D942464B4600F0FCFE0BF1010B78
:107B4000F4E78246EAE722462B4600F013FC0D4696
:107B5000044601F09DF8804600F048FD02460B46C1
:107B60002046294600F004FC0A2204460D46304611
:107B70004146FFF766FF824427B123493046FEF7AE
:107B800079FE8244DFF884904FF00008013FFFB295
:107B9000FF2F89D042464B462046294600F0A0FDE3
:107BA00004460D4601F04CF8B0F1000B1ADA2D2115
:107BB0003046FFF72BFFCBF1000103460A22304687
:107BC0000193FFF73EFF019B18448244584600F0A2
:107BD0001DFD02460B462046294600F0C9FB04461F
:107BE0000D46D3E759460023E8E700BFE4920D00B5
:107BF000FFFFEF7FE8920D00FFFFEF41EC920D00D9
:107C0000FFFFEFC10000E03FF0920D0000002440B4
:107C100038B5044610EE100ACDB200F009FD41EC73
:107C2000100B29462046BDE83840FFF729BF2DE953
:107C3000F04186B000AF05460E46381D14211446AB
:107C40003B60FFF7C7FC13280ED8391D2846FEF706
:107C500011FE04461EB12846FFF7DBFE0444204611
:107C60001837BD46BDE8F08100F1080323F0070393
:107C7000E846ADEB030D2246411C3B686846FFF722
:107C8000A9FC69462846FEF7F5FD0446C546E1E72E
:107C9000014B00229A607047CCE503200021FFF7DA
:107CA0005DBB0021FFF762BB10B50446084621709A
:107CB000FFF724FB00236360204610BD10B5044687
:107CC0000078FFF7EBFF48B920784FF6FF71FFF718
:107CD00005FB2078BDE81040FFF7E3BF10BD00783A
:107CE000FFF7DFBF400830B51860002418688842ED
:107CF000E5B206D90134082C02D040081860F5E737
:107D00000725024B5B5D137030BD00BFF2920D0082
:107D10002DE9F04306468FB000780C46FFF7BEFF12
:107D200000281BDB35781422002109A801F042F855
:107D30000B23002209A92846ADF82430FFF7EEFAFC
:107D40009DF82D3013B19DF82C5055B10027B94640
:107D5000B846012523795DB1C3B100200FB0BDE85D
:107D6000F083DDF830809DF834909DF83570F1E7B0
:107D7000002B35D1A368434508D18DF820908DF8AC
:107D80002170BDF82020A3899A42E6D00023A16883
:107D90008DF80F300A9804AB0DF10F02FFF7A2FF28
:107DA000217985B989B9A36843450ED38DF8209010
:107DB0008DF82170BDF82020A3899A4205D1049B3B
:107DC000434502D1C9E70029F9D100230193637B20
:107DD00000939DF80F20237B3078FFF7B7FABCE7BC
:107DE000CDE900552B462A460121F5E708B5007874
:107DF000FFF77CFAC0B208BD30B587B004460A9DD3
:107E000000950078FFF792FA3DB9207802A9FFF7B4
:107E100095FA9DF81430DB07F7D407B030BD0000A9
:107E2000054B02221A60054B054A9A600020186033
:107E300098809871FFF722BBE8E50320DCE503207A
:107E40000000FFFF024B1A68024B1A60704700BF28
:107E500034E00320ECE5032070474174704770471D
:107E600008B5007CFFF7C2FA20EAE07008BD08B54B
:107E7000007CFFF793FA20EAE07008BD08B5007CAB
:107E8000FFF79CFA40EAE07008BD08B5007CFFF7F8
:107E90008DFA40EAE07008BD007CFFF797BA37B56D
:107EA000457C04462DB1207C03B0BDE83040FFF78F
:107EB0006DBA007C0191FFF799FA00280199F2DC74
:107EC000284603B030BD10B51421044600F048FA2E
:107ED000204610BD10B54FF0000C04460846114670
:107EE0004FF47A72C4E901C2044A2260012220746C
:107EF00062741A46FFF742FA204610BD20930D0027
:107F000013B50D4C2178BFF35B8F11F0010110D137
:107F100020460191FCF7C5F8019950B1074B084A7A
:107F20000848FFF7D7FF2046FCF7C0F8064800F0E6
:107F30001FFF044802B010BDF0E5032078E60320DF
:107F4000F4E50320FCE603205F7E0D0041747047DA
:107F50007047704708B50021007CFFF76FFA40EAD0
:107F6000E07008BD08B50121007CFFF767FA40EA20
:107F7000E07008BD08B5007CFFF758FA20EAE07011
:107F800008BD08B5007CFFF749FA20EAE07008BD9B
:107F900013B50446007C0191FFF748FA00280199C7
:107FA00001DC607C20B1207CFFF750FA20EAE07011
:107FB00002B010BD007CFFF751BA10B51421044681
:107FC00000F0CEF9204610BD10B54FF47A73044688
:107FD00008460021C4E90113044B236001232074E7
:107FE00063741146FFF70AFA204610BD50930D0046
:107FF000007C0022FFF70ABA007CFFF737BAFFF7D0
:10800000FBBF10B514220446002100F0D3FE204629
:1080100010BD000010B50F4C88B003A8FFF7F1FFAA
:108020002178BFF35B8F11F001010FD12046019140
:10803000FCF737F8019948B103AA0748FFF7C4FFD6
:108040002046FCF733F8054800F092FE024808B0DD
:1080500010BD00BF10E7032014E70320517F0D007F
:10806000002240681146FFF75DBA002240681146C1
:10807000FFF778BA002240681146FFF783BA4068DC
:108080000022FFF777BA4068002281F00101FFF774
:1080900061BA002340681A461946FFF753BA002315
:1080A00040681A461946FFF745BA00224068114653
:1080B000FFF728BA406800220221FFF72BBA0023FD
:1080C00040681A46FFF716BA024B04225A60024A69
:1080D0001A60704728E7032080930D00014B186059
:1080E000704700BF38E0032008B50B4B43B1FFF7E2
:1080F00091FF03681B699847002801DDAFF30080FA
:10810000064B43B1FFF7FCFE03681B699847002844
:1081100001DDAFF3008008BD00000000000000009A
:1081200008B5FFF7E1FFFFF749F8014B186008BDFC
:1081300038E703200548064A064908B5121A00F038
:108140002BFE054B054A1A6008BD00BF00F4032052
:1081500004F40320E0930D0000F403201E1C279A72
:1081600007B5002300931A466FF07701FFF7A8F9CF
:1081700003B05DF804FB000007B543880A2B08D064
:10818000502B0BD1094B1B684BB103B05DF804EBCE
:108190001847FFF7E5FF03B05DF804FB00230093E9
:1081A0001A466FF07701FFF78BF9F4E734E7032005
:1081B00010B512480021FFF715FA114B1A68114B40
:1081C0009A42114B0CBF012200221A7001D0FFF716
:1081D000B1FFFEF7DBFF044600F0F4FD0B4B13B1DB
:1081E0002046AFF3008000210848FFF77BF9BDE887
:1081F000104007480021FFF759B900BFDD800D008E
:1082000000F403201E1C279A30E703200000000022
:1082100079810D00232813B502D9002002B010BDCA
:10822000A0F10B03022B1AD8174C2178BFF35B8FF8
:1082300011F001010BD120460191FBF732FF0199AA
:1082400028B11248FFF730FD2046FBF72FFF0F4BF8
:108250001878FFF75BF80028DFD10120DEE701285E
:1082600009D800F059F80021007CFFF707F880F0EA
:108270000100C0B2D2E709380128EED8FFF740FE6E
:10828000007CFFF7ABF8F2E7A0E00320A4E00320B6
:10829000232838B504460D460AD8FF2908D0FFF731
:1082A000B9FF28B129462046BDE83840FEF78EBF09
:1082B00038BD38B504460D46FEF790FFFF2810D0B4
:1082C000062804D84D2323FA00F0C30709D420461A
:1082D000FFF7A0FF28B129462046BDE83840FEF749
:1082E00085BF38BD7047000038B500232025438086
:1082F000142304460380856005610649284600F082
:1083000031F804496060284600F02CF8E06020460F
:1083100038BD00BFB4930D0030B50E4D2978BFF3C2
:108320005B8F11F0010487B011D12846FBF7B9FE2D
:1083300068B101A8FFF7D8FF01AA21460648FFF758
:10834000CFF92846FBF7B2FE044800F011FD0248C1
:1083500007B030BD3CE7032040E70320E5820D0075
:10836000FBF79DBEFBF799BE81F0004102E000BF24
:1083700083F0004330B54FEA41044FEA430594EAE5
:10838000050F08BF90EA020F1FBF54EA000C55EA20
:10839000020C7FEA645C7FEA655C00F0E2804FEAF1
:1083A0005454D4EB5555B8BF6D420CDD2C4480EAD3
:1083B000020281EA030382EA000083EA010180EA03
:1083C000020281EA0303362D88BF30BD11F0004F51
:1083D0004FEA01314FF4801C4CEA113102D0404287
:1083E00061EB410113F0004F4FEA03334CEA1333C2
:1083F00002D0524263EB430394EA050F00F0A780DA
:10840000A4F10104D5F1200E0DDB02FA0EFC22FAD4
:1084100005F2801841F1000103FA0EF2801843FAC8
:1084200005F359410EE0A5F120050EF1200E012AB9
:1084300003FA0EFC28BF4CF0020C43FA05F3C018F7
:1084400051EBE37101F0004507D54FF0000EDCF170
:10845000000C7EEB00006EEB0101B1F5801F1BD319
:10846000B1F5001F0CD349085FEA30004FEA3C0C1D
:1084700004F101044FEA445212F5800F80F09A8013
:10848000BCF1004F08BF5FEA500C50F1000041EB17
:10849000045141EA050130BD5FEA4C0C404141EB1B
:1084A0000101013C28BFB1F5801FE9D291F0000F16
:1084B00004BF01460020B1FA81F308BF2033A3F1C5
:1084C0000B03B3F120020CDA0C3208DD02F1140CBC
:1084D000C2F10C0201FA0CF021FA02F10CE002F1F7
:1084E0001402D8BFC2F1200C01FA02F120FA0CFCF0
:1084F000DCBF41EA0C019040E41AA2BF01EB045139
:10850000294330BD6FEA04041F3C1CDA0C340EDC36
:1085100004F11404C4F1200220FA04F001FA02F379
:1085200040EA030021FA04F345EA030130BDC4F137
:108530000C04C4F1200220FA02F001FA04F340EA2C
:108540000300294630BD21FA04F0294630BD94F0DD
:10855000000F83F4801306BF81F480110134013DC4
:108560004EE77FEA645C18BF7FEA655C29D094EA35
:10857000050F08BF90EA020F05D054EA000C04BFB3
:108580001946104630BD91EA030F1EBF002100209E
:1085900030BD5FEA545C05D14000494128BF41F03D
:1085A000004130BD14F580043CBF01F5801130BDA1
:1085B00001F0004545F0FE4141F470014FF000002C
:1085C00030BD7FEA645C1ABF194610467FEA655CDD
:1085D0001CBF0B46024650EA013406BF52EA03357F
:1085E00091EA030F41F4002130BD00BF90F0000F6D
:1085F00004BF0021704730B54FF4806404F13204A9
:108600004FF000054FF0000150E700BF90F0000F61
:1086100004BF0021704730B54FF4806404F1320488
:1086200010F0004548BF40424FF000013EE700BF58
:1086300042004FEAE2014FEA31014FEA02701FBFE8
:1086400012F07F4393F07F4F81F06051704732F01A
:108650007F4208BF704793F07F4F04BF41F4002171
:10866000704730B54FF4607401F0004521F00041CF
:108670001CE700BF50EA010208BF704730B54FF059
:1086800000050AE050EA010208BF704730B511F05A
:10869000004502D5404261EB41014FF4806404F192
:1086A00032045FEA915C3FF4D8AE4FF003025FEA18
:1086B000DC0C18BF03325FEADC0C18BF033202EB9C
:1086C000DC02C2F1200300FA03FC20FA02F001FAF6
:1086D00003FE40EA0E0021FA02F11444BDE600BF99
:1086E00070B54FF0FF0C4CF4E06C1CEA11541DBF48
:1086F0001CEA135594EA0C0F95EA0C0F00F0DEF813
:108700002C4481EA030621EA4C5123EA4C5350EAF7
:10871000013518BF52EA033541F4801143F4801348
:1087200038D0A0FB02CE4FF00005E1FB02E506F0D9
:108730000042E0FB03E54FF00006E1FB03569CF02E
:10874000000F18BF4EF0010EA4F1FF04B6F5007F34
:1087500064F5407404D25FEA4E0E6D4146EB0606A6
:1087600042EAC62141EA55514FEAC52040EA5E502F
:108770004FEACE2EB4F1FD0C88BFBCF5E06F1ED8D9
:10878000BEF1004F08BF5FEA500E50F1000041EB10
:10879000045170BD06F0004646EA010140EA0200BD
:1087A00081EA0301B4EB5C04C2BFD4EB0C0541EADF
:1087B000045170BD41F480114FF0000E013C00F3F4
:1087C000AB8014F1360FDEBF002001F0004170BD18
:1087D000C4F10004203C35DA0C341BDC04F1140431
:1087E000C4F1200500FA05F320FA04F001FA05F2BD
:1087F00040EA020001F0004221F0004110EBD3708A
:1088000021FA04F642EB06015EEA430E08BF20EAB5
:10881000D37070BDC4F10C04C4F1200500FA04F358
:1088200020FA05F001FA04F240EA020001F00041EA
:1088300010EBD37041F100015EEA430E08BF20EA5D
:10884000D37070BDC4F1200500FA05F24EEA020EA5
:1088500020FA04F301FA05F243EA020321FA04F0D4
:1088600001F0004121FA04F220EA020000EBD3708B
:108870005EEA430E08BF20EAD37070BD94F0000F8B
:108880000FD101F00046400041EB010111F4801FBF
:1088900008BF013CF7D041EA060195F0000F18BF70
:1088A000704703F00046520043EB030313F4801FAC
:1088B00008BF013DF7D043EA0603704794EA0C0F66
:1088C0000CEA135518BF95EA0C0F0CD050EA41067C
:1088D00018BF52EA4306D1D181EA030101F00041F9
:1088E0004FF0000070BD50EA410606BF1046194621
:1088F00052EA430619D094EA0C0F02D150EA01362D
:1089000013D195EA0C0F05D152EA03361CBF10466D
:1089100019460AD181EA030101F0004141F0FE410C
:1089200041F470014FF0000070BD41F0FE4141F490
:10893000780170BD70B54FF0FF0C4CF4E06C1CEA90
:1089400011541DBF1CEA135594EA0C0F95EA0C0F45
:1089500000F0A7F8A4EB050481EA030E52EA033500
:108960004FEA013100F088804FEA03334FF0805521
:1089700045EA131343EA12634FEA022245EA11154E
:1089800045EA10654FEA00260EF000419D4208BFFF
:10899000964244F1FD0404F5407402D25B084FEAAC
:1089A0003202B61A65EB03055B084FEA32024FF458
:1089B00080104FF4002CB6EB020E75EB030E22BFB5
:1089C000B61A754640EA0C005B084FEA3202B6EB75
:1089D000020E75EB030E22BFB61A754640EA5C0024
:1089E0005B084FEA3202B6EB020E75EB030E22BFB4
:1089F000B61A754640EA9C005B084FEA3202B6EBB5
:108A0000020E75EB030E22BFB61A754640EADC0073
:108A100055EA060E18D04FEA051545EA16754FEAD5
:108A200006164FEAC30343EA52734FEAC2025FEAF3
:108A30001C1CC0D111F4801F0BD141EA00014FF082
:108A400000004FF0004CB6E711F4801F04BF014353
:108A50000020B4F1FD0C88BFBCF5E06F3FF6AFAE6F
:108A6000B5EB030C04BFB6EB020C5FEA500C50F1FF
:108A7000000041EB045170BD0EF0004E4EEA113182
:108A800014EB5C04C2BFD4EB0C0541EA045170BD89
:108A900041F480114FF0000E013C90E645EA060ECD
:108AA0008DE60CEA135594EA0C0F08BF95EA0C0FFB
:108AB0003FF43BAF94EA0C0F0AD150EA01347FF443
:108AC00034AF95EA0C0F7FF425AF104619462CE71A
:108AD00095EA0C0F06D152EA03353FF4FDAE10467D
:108AE000194622E750EA410618BF52EA43067FF4CE
:108AF000C5AE50EA41047FF40DAF52EA43057FF45E
:108B0000EBAE12E74FF0FF3C06E000BF4FF0010C68
:108B100002E000BF4FF0010C4DF804CD4FEA410CCC
:108B20007FEA6C5C4FEA430C18BF7FEA6C5C1BD099
:108B300001B050EA410C0CBF52EA430C91EA030F1A
:108B400002BF90EA020F0020704710F1000F91EA77
:108B5000030F58BF994208BF90422CBFD8176FEA45
:108B6000E37040F0010070474FEA410C7FEA6C5C13
:108B700002D150EA013C07D14FEA430C7FEA6C5C1A
:108B8000D6D152EA033CD3D05DF8040B704700BF46
:108B90008446104662468C461946634600E000BF94
:108BA00001B5FFF7B7FF002848BF10F1000F01BD66
:108BB0004DF808EDFFF7F4FF0CBF012000205DF831
:108BC00008FB00BF4DF808EDFFF7EAFF34BF0120B6
:108BD00000205DF808FB00BF4DF808EDFFF7E0FF4F
:108BE00094BF012000205DF808FB00BF4DF808EDA0
:108BF000FFF7CEFF94BF012000205DF808FB00BF07
:108C00004DF808EDFFF7C4FF34BF012000205DF8E8
:108C100008FB00BF4FEA410C7FEA6C5C02D150EACE
:108C2000013C0AD14FEA430C7FEA6C5C02D152EA64
:108C3000033C02D14FF0000070474FF00100704735
:108C40004FEA410212F5001215D211D56FF4787374
:108C5000B3EB625212D94FEAC12343F0004343EA17
:108C6000505311F0004F23FA02F018BF40427047F2
:108C70004FF00000704750EA013005D111F000407C
:108C800008BF6FF0004070474FF00000704700BF12
:108C90004A0011D212F5001211D20DD56FF478737B
:108CA000B3EB62520ED44FEAC12343F0004343EAD0
:108CB000505323FA02F070474FF00000704750EA1B
:108CC000013002D14FF0FF3070474FF00000704785
:108CD0004FEA4102B2F1E04324BFB3F5001CDCF1DE
:108CE000FE5C0DD901F0004C4FEAC0024CEA507016
:108CF000B2F1004F40EB830008BF20F00100704745
:108D000011F0804F21D113F13872BCBF01F0004047
:108D1000704741F480114FEA5252C2F11802C2F179
:108D2000200C10FA0CF320FA02F018BF40F00100FA
:108D30004FEAC1234FEAD32303FA0CFC40EA0C00AC
:108D400023FA02F34FEA4303CCE77FEA625307D1E9
:108D500050EA01331EBF4FF0FE4040F44000704720
:108D600001F0004040F0FE4040F40000704700BFBA
:108D7000002301461A46184600F050B830B50139B4
:108D80000024A24201D1002005E0035D01340D5D05
:108D9000AB42F6D0581B30BD0A44914200F1FF337C
:108DA00000D1704710B511F8014B03F8014F914203
:108DB000F9D110BD02440346934200D1704703F835
:108DC000011BF9E738B50D4B1D68AB6B04467BB949
:108DD0001820FEF7EFFB0A4A0A4BA863C0E90023FC
:108DE000094B83600B23838101220023C0E9042304
:108DF000AB6B00221C615A6138BD00BF38E0032014
:108E00000E33CDAB34126DE6ECDE0500034613F8ED
:108E1000012B002AFBD1181A013870472DE9F843BD
:108E2000DFF8B8800646D8F800001F460D46914688
:108E300000F056F8254B1C6834B9254C1C60254BB6
:108E400013B11B68C4F8883063681F2B07DDD8F89E
:108E5000000000F047F84FF0FF30BDE8F8834EB354
:108E6000D4F8880088B91C4B23B9D8F8000000F06A
:108E700038F8F0E74FF48470FEF79CFB0028F4D03C
:108E80000023C0E94033C4F88800636840F82390A9
:108E900001229A4000EB8301D0F800311343022EE7
:108EA000C0F80031C1F8807002BFD0F804311A4315
:108EB000C0F804216368D8F800005A1C02336260CD
:108EC00044F8235000F00EF80020C6E7E0E7032046
:108ED00054E7032000000000B5750D009CE003205E
:108EE000704770477047000021400D005D400D0045
:108EF00085400D0089400D0000000000646566613A
:108F0000756C7420004D5342004C5342003C53504A
:108F10004953657474696E67732064656661756C26
:108F2000743E003C53504953657474696E677320F6
:108F300025732575202573204D4F444525753E002A
:108F4000436F756C64206E6F742066696E64204197
:108F5000533733343100436F756C646E2774206669
:108F6000696E642052544300525443206973204E6A
:108F70004F542072756E6E696E6721004157393506
:108F80003233206E6F7420666F756E643F204368C5
:108F900065636B20776972696E67210041573935C7
:108FA000323320666F756E642100646174612E63D4
:108FB00073760041535445503A004154494D453A67
:108FC000004741494E2028636865636B20746162E5
:108FD0006C65293A004C454420496E74656E73698E
:108FE00074792C446174652C54696D652C547970C6
:108FF000652C463120284261736963292C46322052
:10900000284261736963292C4633202842617369C1
:1090100063292C463420284261736963292C463524
:1090200020284261736963292C46362028426173E7
:109030006963292C463720284261736963292C46CD
:109040003820284261736963292C436C6561722062
:10905000284261736963292C4E495220284261736A
:109060006963292C547970652C4631202852617728
:10907000292C46322028526177292C463320285249
:109080006177292C46342028526177292C463520D7
:1090900028526177292C46362028526177292C46A0
:1090A000372028526177292C4638202852617729A9
:1090B0002C436C6561722028526177292C4E4952ED
:1090C000202852617729004572726F72206F706597
:1090D0006E696E672066696C6521004C45442049C5
:1090E0004E54454E534954593A0020280029200037
:1090F0004572726F722072656164696E6720616C7F
:109100006C206368616E6E656C732100463120349B
:1091100031356E6D203A20002020005261772056B4
:10912000616C7565203A20004632203434356E6D0E
:10913000203A20004633203438306E6D203A20002B
:109140004634203531356E6D203A200046352035C5
:1091500035356E6D203A20004636203539306E6D3B
:10916000203A20004637203633306E6D203A2000FA
:109170004638203638306E6D203A2000436C6561E9
:1091800072202020203A20004E495220202020200A
:10919000203A2000424153494320434F554E5453F7
:1091A000005241572056414C5545530000000000E5
:1091B0000000000055410D00B3400D00D1400D00EE
:1091C0000000000000000000CF400D00DF400D0057
:1091D0001F410D0019410D00B5400D00F9400D0073
:1091E000F3400D00ED400D000000003F0000803F07
:1091F000000000400000804000000041000080416D
:109200000000004200008042000000430000804354
:10921000000000440000000000000000694D0D0047
:109220001F1C1F1E1F1E1F1F1E1F1E1F00000000D1
:10923000000000006B760D0061760D0057760D0082
:109240004D760D0041760D0035760D00B9780D0094
:10925000C1780D0029760D0021760D0017760D00DE
:109260000D760D00F1780D000000000000000000F8
:1092700089760D00D3760D00AB760D008B760D0050
:10928000B3760D00BB760D00C3760D00CB760D00D6
:10929000000000000000000095770D0085770D00AC
:1092A00087770D0061707000000000000000000072
:1092B00079780D0083780D008D780D0097780D007A
:1092C000A1780D00AD780D00B9780D00C1780D00C2
:1092D000C9780D00D5780D00DD780D00E7780D0018
:1092E000F1780D006E616E00696E66006F76660043
:1092F0002E00000810182028303825592D256D2DF6
:1093000025645425483A254D3A2553257A00617342
:109310006374696D6500000000000000000000003B
:10932000597E0D00C77E0D009F7E0D00D9790D007E
:109330006F7E0D008B7E0D007D7E0D00997E0D00F1
:109340005B7E0D00617E0D0000000000000000004B
:10935000537F0D00BB7F0D00917F0D00D9790D006B
:10936000837F0D00557F0D00657F0D00B57F0D00DB
:10937000757F0D004D7F0D00000000000000000013
:10938000BF800D00B5800D00AB800D0061800D0029
:109390009F800D0093800D00B9780D00C1780D00FD
:1093A00087800D007F800D0075800D006B800D00A3
:1093B000F1780D0000000000254C0D00FD750D003A
:1093C00075760D0069780D00C5790D00917C0D0052
:1093D000217E0D00457E0D00C9800D0000000000BB
:0493E0000000000089
:1093E400FA0000000100000053756E64617900000A
:1093F400000000004D6F6E64617900000000000001
:109404005475657364617900000000005765646EEB
:1094140065736461790000005468757273646179DE
:1094240000000000467269646179000000000000D9
:109434005361747572646179000000000E930D002D
:109444003CE00320000000000000000000000000D9
:109454000000000000000000000000000000000008
:1094640000000000000000000000000000000000F8
:1094740000000000000000000000000000000000E8
:1094840000000000000000000000000000000000D8
:1094940000000000000000000000000000000000C8
:0894A40000000000E5E70320D1
:1094AC00FFFFFFFF00000102030405060708090A7D
:1094BC000B0C0D0E0F101112131415161718191A78
:0894CC001B1C1D1E1F202800BF
:0494D4007856341280
:04000003D0004020C9
:00000001FF
